:1000000005308A00C62D00000A108A100A118207E6
:1000100028340C3401340634CE23D52C4527202235
:10002000D521202AC820CE23000020102010201027
:1000300020102010D425311BAE19000120102010F3
:1000400020224F104127A019201020100001202A43
:10005000C82ACF212022C9224E10D42A2010000104
:100060004E244127A0295410C42220224F10CB2116
:100070000001CE23CF2049105024C126202B491047
:10008000C427000120102010201020102010201064
:100090002010201000012010A025C827412747105C
:1000A000C32043242010201020002010201F3E1FBA
:1000B00025173133A0316D10201020102010201092
:1000C0000D050000343084008313000803197628DE
:1000D0000130F800F701F70B6B28F80B6A284A305B
:1000E000F700F70B71287428800B682808003B186C
:1000F0007B2887137C288717A01320088316870086
:100100008312BB1885280713862807172013200899
:100110008316870083123B198F2887129028871631
:10012000A0122008831687008312BB199928071292
:100130009A280716201220088316870000008312D1
:10014000081683160812A4288312081283160812B0
:1001500083120800BC01A017200883168700003016
:100160008312871B0130BC042017200883168700E8
:1001700000308312071B0130F7000310F70D7708DA
:10018000BC04A01620088316870000308312871A4B
:100190000130F700F70DF70DFC30F7057708BC04C8
:1001A000201620088316870000308312071A0130BA
:1001B000F700F70DF70DF70DF830F7057708BC04D9
:1001C0003C08F80008000813831608138717071760
:1001D000871607168312881683168812000083126A
:1001E00008168316081200008312AA207808BB00A4
:1001F00008128316081200008312081683160812CC
:1002000000008312AA207808BA0008128316081288
:100210008312A0132008831687008312201320085E
:10022000831687008312A01220088316870083128A
:10023000201220088316870083123B0EF700F0304F
:10024000F70577083A04F8007808BA00BA1F2A2997
:100250008316E628B808031D2F290813302908172C
:100260008316081300008312881283168812000078
:1002700083120812831608128312390EBA000F3047
:10028000BA053A08BB00772039080F39BA00BB001D
:10029000772008008316081088100811881183122F
:1002A000A0132008831687008312201320088316CA
:1002B00087008312A0122008831687008312201261
:1002C00020088316870008120812081308138812E2
:1002D0008812831208138316081383128812831658
:1002E000881283120812831608120F308312B4008A
:1002F00062200130A6002608033C031C8729033036
:10030000BB0077200530B4006220A60A7B290230AA
:10031000BB007720A6012608033C031C9829260869
:100320000420A700B8012708B900E320A60A8B29FA
:100330008A110A12D52D350B9F29B601B32935082C
:10034000023C031DA6294030B600B3293508033C02
:10035000031DAD291430B600B3293508043C031D34
:10036000B3295430B60001303402B607360880385D
:10037000B700B8013708B900E320080033080C3A89
:100380000319C929063A0319D129023A0319D729B1
:10039000DC29B8010130B900E3200230B40062204A
:1003A000E1290130B4000230B5009B21E129B801F8
:1003B0001030B900E320E1290130B8003308B9005A
:1003C000E32008000B08A6008B13831603178C1775
:1003D0000C140000000083120313A61B8B170317D5
:1003E0000C087F390319362A0313A60003170D08DA
:1003F0000313A70003170F080313A8002608B30070
:10040000BE21270803178D000313280803178F0048
:1004100003130B08A9008B13831603178C170C14F6
:100420000000000083120313A91B8B1703170C0D88
:100430000E0D7F390319362A0313A60003170D0882
:100440000313A70003170F080313A8002608B3001F
:10045000BE21270803178D000313280803178F00F8
:100460008D0A03198F0A0313E229031703130800E7
:1004700033080319A82ABB0037080319A82ABB07A9
:100480000318492A7F30BB02031CA82A0319A82A93
:100490004D2A8130BB070318A82A3B08F700F80152
:1004A000F901FA013408BF00BF173508BE0036084D
:1004B000BD001830BB00BC013D1C762A3A08FA0783
:1004C000031C682AF90A031D682AF80A0319BC17D5
:1004D0003908F907031C6F2AF80A0319BC173808F2
:1004E000B500B5173508F8070318BC17BC0DF80C94
:1004F000F90CFA0CBF0CBE0CBD0C0310BB0B5B2A35
:100500000130F7070318A82AF81B8D2ABF0DFA0D32
:10051000F90DF80DF7030319A82ABF1F9E2AFA0A3E
:10052000031D9E2AF90A031D9E2AF80A031D9E2A0E
:10053000F80CF90CFA0CF70A0319A82A3408BC00C5
:100540003808BC06BC1FA62AF817AC2AF813AC2A38
:10055000F701F801F901FA01080083160610831269
:1005600006140A30B40062208316061083120610A7
:10057000831686148312861CB82A853090008E015B
:100580008F018E018316861483128618C22A900169
:100590000F08FA000E08F7000F087A02031DC82A98
:1005A0007708AA007A08AB002B08AD002A08AC0037
:1005B0008E30F7002D08F8002C08F900FA01F80831
:1005C000031DEC2A7908F800F9010830F702F80851
:1005D000031DEC2AF701F42A0310F81BF32AF90D86
:1005E000F80DF703EC2AF8137A08AF007908AE008B
:1005F0007808AD007708AC002F08B3002E08B200D1
:100600002D08B1002C08B000B701B6016830B50064
:100610008430B40030080319CF2BBC003408031910
:10062000CF2BBC02031C192B7F30BC070318CF2B28
:100630001F2B8130BC02031CCF2B0319CF2B3C088E
:10064000F700F801F901FA01BB013108BA00BA1745
:100650003208B9003308B8001930BC003708B802B6
:100660000318422B0130B9020318422BBA020318B7
:10067000422BBB020318422BBB0ABA0AB90A37083D
:10068000B807742B3608B90203185D2B0130BA0283
:1006900003185D2BBB0203185D2BBB0ABA0A360890
:1006A000B9073708B807031C742BB90A031D742B4C
:1006B000BA0A031D742BBB0A742B35088038BA02A2
:1006C0000318732B0130BB020318732BBB0A3508C8
:1006D0008038BA073608B907031C512BBA0A031D24
:1006E000512BBB0A512B7A14BC0B772B822B031096
:1006F000B80DB90DBA0DBB0D0310FA0DF90DF80DBB
:10070000BD0D2E2B3D1C8A2B0310F80CF90CFA0C96
:10071000BD0C8D2BF7030319CF2BBD1BB62B03107C
:10072000B80DB90DBA0DBB0D3708B8020318A22BCE
:100730000130B9020318A22BBA020318A22BBB0284
:10074000031CC52B3608B9020318AD2B0130BA02C1
:100750000318AD2BBB02031CC52B35088038BA0229
:100760000318B62B0130BB02031CC52BFA0A031D6C
:10077000C52BF90A031DC52BF80A031DC52BF70A63
:100780000319CF2BF80CF90CFA0C3108BC00350812
:10079000BC06BC1FCD2BF817D32BF813D32BF701B6
:1007A000F801F901FA017A08A9007908A800780887
:1007B000A7007708A6002908B6002808B500270872
:1007C000B4002608B300CD30BA00CC30B9004C30AC
:1007D000B8007C30B70038227A08A9007908A80050
:1007E0007808A7007708A6002608F7002708F80071
:1007F0002808F9002908FA008A110A123F2E270852
:10080000AE002B08AE06AE1F0A2C03110310A71B67
:1008100003143D2C2708AE002A08AF002608AF02BB
:100820000319182CAE1F3D2C0308013A83003D2C00
:100830002B08AF002708AF020319242CAE1F3D2C54
:100840000308013A83003D2C2C08AF002808AF02B2
:100850000319302CAE1F3D2C0308013A83003D2CB8
:100860002D08AF002908AF0203193C2CAE1F3D2C08
:100870000308013A83003D2C031008000B08A70071
:100880008B13831603178C170C14000000008312BF
:100890000313A71B8B170318752C03170C087F393C
:1008A0000313A70003170D080313A80003170F086D
:1008B0000313A9002708B300BE21280803178D00E1
:1008C0000313290803178F0003130B08AA008B13C7
:1008D000831603178C170C140000000083120313F7
:1008E000AA1B8B17A60B752C942C03170C0D0E0D41
:1008F0007F390313A70003170D080313A80003177C
:100900000F080313A9002708B300BE212808031706
:100910008D000313290803178F008D0A03198F0A0E
:1009200003100313A60B3E2C080083189A2C3B30AF
:1009300084008313F701F801F901FA01BB01BC013E
:10094000BD01BE013A083904380437040319D82C14
:100950002030BF000310B30DB40DB50DB60DBB0DA7
:10096000BC0DBD0DBE0D3A083E02031DC12C390859
:100970003D02031DC12C38083C02031DC12C370861
:100980003B02031CD22C3708BB023808031C380F6B
:10099000BC023908031C390FBD023A08031C3A0F88
:1009A000BE020314F70DF80DF90DFA0DBF0BAA2CBA
:1009B0003B088000840A3C088000840A3D088000CF
:1009C000840A3E08800008000408AB002A08AD0035
:1009D0000319032D2908B6002808B5002708B4001C
:1009E0002608B300BA01B9012030B8008230B70040
:1009F00038227A08A9007908A8007808A7007708A3
:100A0000A600AD0BEA2C2908B6002808B500270877
:100A1000B4002608B3003308B63CB300FA0134082A
:100A2000B700B4170310B40CB50CB60CFA0CF90CE3
:100A3000F80CF70CB30B122DB71F292DF709F80985
:100A4000F909FA09F70A0319F80A0319F90A031947
:100A5000FA0A7A08A9007908A8007808A700770898
:100A6000A600A91F402DAB03AB16A609A709A8092C
:100A7000A909A60A0319A70A0319A80A0319A90AAA
:100A80003B30B2009A30B100CA30B000AF010A303A
:100A9000AD002A080319AB0A83142630840083139F
:100AA0002908B6002808B5002708B4002608B300B6
:100AB0003208BA003108B9003008B8002F08B70072
:100AC00095247808F708031D782D2A0A2D020319AA
:100AD000782D2B0803197A2D0F392D020319722D49
:100AE0000318AA2DAB1BAA2D2B1B7A2D2030A62D67
:100AF0002030AB05AB1E882DAB122A08031DAB03BB
:100B00007708AB002D30B300BE212B08F700AB01F6
:100B10002A082D02031D962D7708AB002E30B30056
:100B2000BE212B08F7002030AB0500303030AB1E63
:100B3000A62DAB122A08031DAB037708AB002D309E
:100B4000B300BE212B08F700AB013030F707770860
:100B5000B300BE2183103208B6003108B50030085A
:100B6000B4002F08B300BA01B901B8010A30B700C8
:100B700095247A08B2007908B1007808B0007708A7
:100B8000AF00AD0B4C2D8A110A12C62E03081F3977
:100B90008300FF30A00083161F149F141F159F11A0
:100BA00007309C00831383124A290C30B300BE2106
:100BB0000130B400B5009B210C3003178D000030CC
:100BC0008F000313E2211430A600FA30B400622033
:100BD000A60BE52D0130B4000230B5009B21153085
:100BE00003178D0000308F000313E2211430A6009C
:100BF000FA30B4006220A60BF82D0130B400B50025
:100C00009B210C30B300BE211E3003178D00003035
:100C10008F000313E2211430A600FA30B4006220E2
:100C2000A60B0D2E0130B4000230B5009B212730F9
:100C300003178D0000308F000313E2212030A6003F
:100C4000FA30B4006220A60B202E0130B40002302E
:100C5000B5009B21303003178D0000308F00031347
:100C6000E2211430A600FA30B4006220A60B332E25
:100C7000A5018316851583128519D32EAD2A7A080E
:100C8000A4007908A3007808A2007708A100A901B0
:100C9000A8016030A7008630A6002408AD00230814
:100CA000AC002208AB002108AA00FF2303186D2E18
:100CB00003196D2E2408A9002308A8002208A70004
:100CC0002108A600AD01AC012030AB008030AA00A5
:100CD000FF2303186D2E031D6F2E0130A50024087D
:100CE000A9002308A8002208A7002108A600AD013A
:100CF000AC016030AB008630AA00FF230318A501C9
:100D0000250B9C2E0130B400B5009B213930031710
:100D10008D0000308F000313E2210130B400023057
:100D2000B5009B21423003178D0000308F00031364
:100D3000E2216430B4006220A508031DD32E0130E7
:100D4000B400B5009B214B3003178D0000308F009D
:100D50000313E2210130B4000230B5009B2155306D
:100D600003178D0000308F00031006300313A60018
:100D70003E24893084002408A9002308A800220802
:100D8000A7002108A6000130AA00E42C5A3003175E
:100D90008D0000308F0003100E300313A6003E2498
:0A0DA0006430B4006220392E6300B5
:02400E00723FFF
:00000001FF
;PIC16F877A
;CRC=DFEA  CREATED="08-Jan-21 10:48"
